:020000040000FA
:06000000FCEF0DF0120000
:020006001200E6
:06000800AEEF0BF0120048
:02000E000000F0
:020010000000EE
:0600180075EF0BF0120071
:02001E000500DB
:10002000DA1C0000450F0000280000000E00000050
:10003000E100000004000000791C000080000000C6
:1000400061000000341C0000000F000045000000AB
:0C005000141C0000000100002000000053
:04005C00E9EC04F0D7
:1000600043D801010B51FDE00B6B77EC0AF0EAD8A5
:10007000F1EC06F0F6D72BEC04F0040EE126DE6A74
:10008000DD6ADECF10F0DDCF11F062EC04F011502C
:100090001318E8AE02D0133404D01250105C135081
:1000A00011581BE28BEC04F0020EDBCF10F0030EB4
:1000B000DBCF11F0D890115004E6EE0E105C000E6C
:1000C000115806E2020EDB2A030EEEE3DB2AECD720
:1000D000DF2A010ED6E3DB2AD4D7040EE15C02E26C
:1000E000E16AE552E16EC2D3936A956A62EC05F06B
:1000F000C9EC06F06DEC0BF0E80EE66E030EE66E52
:10010000BADFE552E552570EE66E120EE66E41EC8E
:1001100009F0E552E552AE0EE66E240EE66E57EC9F
:1001200009F0E552E552660EE66EB70EE66E86EC15
:1001300009F0E552E552020EE66EE66ADFEC09F0E0
:10014000E552E5520A0EE66EE66AEBEC09F0E5527E
:10015000E552320EE66EE66A04EC0AF0E552E5522C
:1001600073EF0AF0C7EC04F00CE1ACDB133404E2EB
:1001700012500708000E135404E393DBEF50831072
:10018000836E74D3C7EC04F00CE19CDB133404E2FF
:1001900012500708000E135404E383DBEF1C831492
:1001A000836E64D358DB5CDBEF0407E1ADDBEADF91
:1001B000E552E55255DBEF6A07D0A6DBD3DFE55207
:1001C000E5524EDB010EEF6E51D3E9EC04F0DECFC9
:1001D00010F0DDCF11F0113404E210500708000ECA
:1001E000115411E3DECFE6FFDDCFE6FFBBDF5FDBBF
:1001F000DECFE6FFDDCFE6FFC5DF59DBDF2A010EEC
:10020000E6E3DB2AE4D7020EE15C02E2E16AE552B2
:10021000E16E2CD30F01010E491903E14A5101E1AE
:10022000010C000C0F01010E4B1903E14C5101E1CF
:10023000010C000C0F01010E611903E1625101E193
:10024000010C000C0F013D51320A1DE03C0A19E07F
:10025000030A1BE1020E3E6F330E3F6F650EE66E22
:10026000190ECADA540EE66E190ED2DB03E00F0146
:100270000E0E3D6FDFDF00090AE00F01320E3D6F09
:100280001200AEEF01F0DEEF02F00D0E3D6F120036
:1002900085DB050EDF5C36E2F0DA010EDB6A040E68
:1002A000F36E010EDBCFF4FFF350F45C1DE2010EA0
:1002B000DB501ADB040DF3CF11F0F4CF12F0200E57
:1002C00011260F0E1222010EDB501124E96E000ED2
:1002D0001220EA6EEF50105C03E1DF50FADA01E120
:1002E0001ADB010EDB2ADBD7D950020FE96EDACF19
:1002F000EAFF010EEE1804E1ED5002E1DF2802D022
:10030000DF2AC7D7106E040EE15C02E2E16AE55213
:10031000E16E1050ABD29FDAE652DF6ADF500F0871
:100320001AE3EA6ADF34FE0BEA36E96E450EE92687
:100330000F0EEA22010EEE180CE1ED500AE1DF503B
:10034000EA6A100FE96E0F0EEA22EFCF7BFF010E73
:1003500003D0DF2AE3D7000EE55288D20F013E51C9
:10036000090A01E122D1010A01E107D1040A01E1F0
:10037000FDD01D0A01E1D6D0160A01E1C1D00C0A58
:1003800001E1B4D0010A01E198D00C0A01E184D066
:10039000030A40E0010A2BE00B0A22E00C0A0DE000
:1003A000010A01E008D1C6DA01E107D10F01406B73
:1003B000446B030E3E6FC9EF06F0210EE66E190E78
:1003C0000EDB01E0DEDA040E0F01405D03E3406B5B
:1003D0000F0E3E6F640E445D01E2EFD0020EE3D0DB
:1003E000B4D9000901E0C7D00F01040EDCD00E0E15
:1003F000E66E190E01DAF70EE66E180E09DB05E05F
:10040000C9EC06F00F01030E3E6FCEDA0F01090EA4
:100410003F6F1200C9EC06F0E10EE66E180EECD943
:10042000D20EE66E180EE66EE66AEAD95ADA01E1F5
:10043000C4D0C9EC06F00F017B0508E1BCDA050E5B
:10044000425D02E2E0D9FBD7060E3E6F020E0F01BD
:100450007B5D08E1B0DA050E425D02E2D4D9FBD73C
:10046000070E3E6F030E0F017B5D08E1B70EE66ECF
:10047000180EC2D90F01416B080E3E6F040E0F011A
:100480007B5D01E09AD0C9EC06F0AF0EE66E180E67
:10049000B3D90F01090E87D0426923DA04E0C9EC11
:1004A00006F07BCF42FFFF0E0F01425D01E185D0D8
:1004B00042510FDA58E00B0E76D0A00EE66E180E01
:1004C0009BD90FDA04E055DA0F0142518DDA040EA0
:1004D0000F01415D01E146DACDD96FE0C9EC06F0CC
:1004E0000F01425130DA010EEF6E08D0840EE66E35
:1004F000180E44DA62E0C9EC06F00F01426952D0EE
:100500004269EFD904E0C9EC06F07BCF42FFFF0E51
:100510000F01425D52E04251DCD902E10C0E43D0A2
:10052000110E41D07C0EE66E180E28DA17E00F018E
:10053000416B040E415D06E2425171D9EF6A0F0131
:10054000412BF7D7416B4251FED9EF6A4269730ED6
:10055000E66E180E51D90F01050E3E6F6BDE0009D5
:100560002CE00F014269416B0A0E1DD0650EE66E4C
:10057000180E04DA22E00F0115D0B3D90BE0F9D937
:100580000F014151EA6A340FE96E0F0EEA227BCF68
:10059000EFFF412B040E0F01415D01E1E3D96AD960
:1005A0000CE0BED9050E3E6F120064D906E00F01C3
:1005B0000D0E3D6F1200020E3E6F12000F013F51F3
:1005C000390A01E1A3D0010A69E00E0A55E0010AE7
:1005D00027E0020A1DE0010A08E0070A01E09CD0BA
:1005E000A9D901E19BD07DEF04F0550EE66E180EFF
:1005F000F6D901E0C6D9040E0F01405D03E3406B5C
:10060000350E3F6F640E445D01E288D0330E7CD01E
:100610003FDE000902E00F0176D00F01360E74D0E4
:10062000442BC9EC06F0440EE66E180EE5D87FD8D0
:1006300001DE000917E074D9A4D80F01436FB70E8B
:10064000E66E180ED9D843CF10F0116A126A136AF9
:1006500043CFE6FFE2D90E0EE66EE66ACBD90F0174
:10066000380E3F6F07D95AE0C9EC06F0AF0EE66EC0
:10067000180E84D953E00FD0C9EC06F0340EE66EA4
:10068000180E7CD901E039D9D5DD000947E00F010A
:10069000406B446B89D90F01390E36D022D904E062
:1006A00068D90F014351A0D9040E0F01415D27E124
:1006B00059D90F01416B040E415D21E24351040DF4
:1006C000F3CF14F0F4CF15F0200E14260F0E1522E0
:1006D00041510F011424E96E000E1520EA6E39D93C
:1006E0000F014151E824E66E010EE66E72EC07F050
:1006F000166E060EE15E16500F01412BDCD7BAD8FC
:100700000DE00ED94369370E3F6F1200B3D806E0F3
:100710000F010D0E3D6F1200330E3F6F12000F01DF
:10072000010E5D1903E15E5101E1010C000C000EA8
:10073000E66EE66A17DDE552E5521200000EE66E3F
:10074000E66A20DDE552E552120028D9040EDF5C8E
:100750000DE2DF50C9D8EA6A340FE96E0F0EEA22C3
:10076000EF50105C01E0D7D8DF2AF0D7020EDB5043
:10077000106E040EE15C02E2E16AE552E16E105097
:1007800075D069D8030EE126010EDB68020EDB6826
:10079000DF6A050EDF5C25E253D8EF500F01775D6D
:1007A0001EE14ED8010EC1D8785D19E149D8020E7C
:1007B000BCD8795D14E144D8030EB7D87A5D0FE157
:1007C000DF50C1D8EF040BE1DF50E66ED950010FC6
:1007D000E96EDACFEAFFE552E750EE6EED6ADF2A06
:1007E000D8D7010EDB50106E030EE15C02E2E16A25
:1007F000E552E16E10503AD0E66EE66AE66AE2D063
:10080000010EE66EDFD042519ED8A3D84251E824B3
:10081000E66E010EE66EEED80F01422B1200040DBB
:10082000F3CF10F0F4CF11F0200E10260F0E11228E
:1008300041510F011024E96E000E1120EA6E1200E2
:10084000DF50040DF3CFE9FFF4CFEAFF200EE926D5
:100850000F0EEA221200D9CFE6FFE1CFD9FF120036
:10086000D0D8080EE9260F0EEA221200E552E7CF93
:10087000D9FF120054DF00091200010EF36E020EC0
:10088000F3CFDBFF030EDB6A12000F014051EA6A6F
:10089000770FE96E0F0EEA227BCFEFFF402B446B00
:1008A0001200AFD8000EE9260F0EEA221200E55220
:1008B000E552F40EE66E010EE66E3BEC00F0E552FA
:1008C000E5521200FD0EDBCF12F0FE0EDBCF13F06F
:1008D000120039D8EF5012001F0EE66E190EE66EA8
:1008E000120019DD00091200EA6A770FE96E0F0E97
:1008F000EA22EFCF10F0DF5012000F01406B446B83
:10090000340E3F6FC9EF06F0FD0EDBCFE6FFFE0EA3
:10091000DBCFE6FF1200020EDB6A030EDB6A120079
:10092000C9EC06F00F01416B1200E926000EEA2225
:10093000EF501200430EE66E190E5EDF320EE66EC9
:10094000190E08EF05F0EA6A380FE96E0F0EEA2279
:100950001200EFCF10F0116A126A136A10C0E6FF9E
:100960000DEF05F0C9EC06F0900EE66E180EFCEFE8
:1009700003F0B2DF41CFE6FF00EF04F03DDF3AEFD6
:1009800004F0AADF40CFE6FF3BDF45EF04F063DF72
:10099000FE0EDBCF11F0800E111412005CDF040E8E
:1009A000E1266BDFDF6A1200C9EC06F0F00EE66E9E
:1009B000180EFCEF03F0C60EE66E180E1DDF0F01D9
:1009C000426B1200C0EC07F0E552E552E552E552E9
:1009D000120041DF020EE126DE6ADD6A12000CDF42
:1009E0000F01442B71EF04F01ADF7BCFEFFF0F01F3
:1009F000412B120072EC07F0146E060EE15E1450EB
:100A00001200FD0EDBCFE9FFFE0EDBCFEAFF120086
:100A1000E66EE66AF5DE3AEF04F011C0E6FF12C0BA
:080A2000E6FF13C0E6FF12001F
:080A280028EC09F07BDB11AEA4
:100A300002D01268136820DB13E289DB49DB04E68D
:100A4000050E105C000E115806E2020EDB2A030EA2
:100A5000F5E3DB2AF3D7DF2A010EE8E3DB2AE6D74A
:100A6000040EE15C02E2E16AE552E16EBBD2F0DB2A
:100A700059DB11AE02D012681368FEDA13E267DBAD
:100A800027DB04E6EE0E105C000E115806E2020EA3
:100A9000DB2A030EF5E3DB2AF3D7DF2A010EE8E3B6
:100AA000DB2AE6D7040EE15C02E2E16AE552E16E80
:100AB00099D2D4DBF00B6BDBFE0EDB38F00B81122E
:100AC00078DA90D2C2DB190E50DB0F0E8116F80EC9
:100AD00081160F0E8116300E5ADB300E58DB300EA9
:100AE00056DB818A66DA280EE66EE3DFE5520C0EED
:100AF000E66EDFDFE552E55275D29DDB010EDB6A63
:100B000081944ADBE76E010EE7CFDBFF819644DB81
:100B1000DF6E010EDB50DF128196010E51DADF50DD
:100B2000106E020EE15C02E2E16AE552E16E1050E5
:100B300059D28BDBDF6AE1DFDF6EDFBEFCD7DF502F
:100B4000E55250D28BDB81128186050E39DA81960F
:100B5000050E36DA47D241DA8194050E31DA98DA99
:100B600041D23BDA8184050E2BDA92DA81943AD2B3
:100B70003BD33AD332DAFD0EDBCFF6FFFE0EDBCFEE
:100B8000F7FF0800F5500DE0FD0EDBCFF6FFDB2A86
:100B9000FE0EDBCFF7FF01E3DB2A0800F5501BDB7D
:100BA000EAD720D252DBFD0EDB500F0B106EFE0E8B
:100BB000DB50010B400DF3501024DF6E7F0EDF146D
:100BC000800FDF6EDFCFE6FFC6DFE552E5520AD2C7
:100BD000010EE66EC0DFE552E66AE66A34EF09F020
:100BE000FCD9050EE126010EF36EDB6EB0DA040EC1
:100BF000DB6ADF6ADFCF10F0116A10BE116899DA84
:100C000011501318E8AE02D0133404D01250105C07
:100C1000135011581FE2FD0EDBCF10F0FE0EDBCF9C
:100C200011F0126A136A11AE02D012681368D9501B
:100C3000010FE96EDACFEAFF10C00BF011C00CF023
:100C400012C00DF013C00EF0DBDA5DEC0DF0E1DA4E
:100C5000DF2AD0D7010EDBCF10F0020EDBCF11F070
:100C6000030EDBCF12F0040EDBCF13F010C006F042
:100C700011C007F012C008F013C009F0050EE15CC6
:100C800002E2E16AE552E16EADD1D5DAFB0EDBCFCF
:100C900010F0FC0EDBCF11F0FD0EDBCF12F0FE0EDC
:100CA000DBCF13F0105011101210131003E1300EAF
:100CB00092DA36D0D950FB0F14DA01E618DA05E2E1
:100CC0002D0E89DAD950FB0FCAD9DE52070EDD6E20
:100CD00037DAE8AE02D0103403D0E750D880105491
:100CE0001FE217DA14BE156871D936DA5EDA08DA4F
:100CF0000BE0010EDF6EDB04186E196A18BE19686E
:100D000083D953DA9FD903D0DF5002E0300E63DA83
:100D100000DA14BE15685AD9D950FB0F6CD9D8D750
:100D2000020EE15C02E2E16AE552E16E5BD155D967
:100D3000C7D9D950F90F53DAEECFE6FFEECFE6FF71
:100D4000EECFE6FFEFCFE6FFA0DFE552E552E5523A
:100D5000E55248D142D9B4D9FB0EDBCFE6FFFC0EF9
:100D6000DBCFE6FF07DFE552E5523CD136D97CCF39
:100D700010F07DCF11F0040ED89010361136E80631
:100D8000FBE192D9FE0EDBCFEFFF7E2B000E7F231F
:100D900029D15BDADF6ADFCF10F0100EE76E101892
:100DA000E8AE02D0E73402D0E750105C18E2DFCFA3
:100DB000E9FFEA6AE9BEEA68C10EE926000EEA2206
:100DC000200EEF6EDFCFE9FFEA6AE9BEEA68D10ED6
:100DD000E926000EEA22200EEF6EDF2ADCD7E5526C
:100DE00001D133DA0001C051030A29E0010A1CE0F5
:100DF000030A0CE0010A32E13BDA080EDF5C03E291
:100E0000DF50B9D9FAD70001010E17D0080EE66EEF
:100E1000E66A09D9080EDF5C04E2080EDF24ABD9CC
:100E2000F9D70001020E09D00BDA080EDF5C03E2ED
:100E3000DF50A7D9FAD70001030EC06F10D0080EFB
:100E4000E66E010EE66EEFD8080EDF5C04E2080ED7
:100E5000DF2497D9F9D70001C06B01D0C06BE552F0
:100E6000C1D0F3D90001C051010A0DE0010A15E11A
:100E7000FFD9100EDF5C03E2DF507DD9FAD7000105
:100E8000010EC06F0BD0DCD9100EDF5C03E2DF5027
:100E900078D9FAD70001C06B01D0C06BE552A2D05F
:100EA000D4D9E6D9100EDF5C03E2DF5064D9FAD75B
:100EB000C7D9100EDF5C03E2DF5063D9FAD7E552E1
:100EC00091D08BD8B3D87CCF10F07DCF11F0040E29
:100ED000D89010361136E806FBE1E6D8FC0EDBCFE1
:100EE000EFFF80D0A8D9A2D8F90EDBCF10F0FA0E10
:100EF000DBCF11F01ED9105011101210131003E1A6
:100F0000300E0CD936D0D950F90FEBD801E6EFD816
:100F100005E22D0E03D9D950F90FA1D8DE52070EE4
:100F2000DD6E0ED9E8AE02D0103403D0E750D88081
:100F300010541FE2EED814BE156848D80DD940D918
:100F4000DFD80BE0010EDF6EDB04186E196A18BEE5
:100F500019685AD835D976D803D0DF5002E0300E60
:100F6000DDD8D7D814BE156831D8D950F90F43D879
:100F7000D8D7020EE15C02E2E16AE552E16E32D0BE
:100F80002CD854D8FB0EDBCFF6FFFC0EDBCFF7FFDF
:100F90000800F5500DE0FB0EDBCFF6FFDB2AFC0E60
:100FA000DBCFF7FF01E3DB2A0800F550B7D8EAD71B
:100FB00019D08186010ED9D88196010EB5EF08F0BF
:100FC000E66EE66AE66AE66A2FDD56D114C0E6FFF1
:100FD00015C0E6FF10D912EF09F0D9CFE6FFE1CF37
:100FE000D9FF1200E552E7CFD9FF1200EA22EF50F5
:100FF000F2D8DF2A1200F3D8AFD802D995EC0DF061
:1010000008D9010EDB06120018C0E6FF19C0E6FF82
:10101000F2D806C014F007C015F008C016F009C0D9
:1010200017F0ACEF08F020D9DF6A1200FE0EDB509B
:10103000010B0F017C6F7D6BFD0EDB500F0B7E6F84
:101040007F6B1200DBCF09F095EC0DF0EBD8300E82
:101050001026000E11221222132210501200BFD8A7
:10106000000EEE6CEF1EEE22EF1EEE22EF1EEF22C0
:10107000ED52ED52ED521200D950FB0FB0D8EE50A8
:10108000105CEE501158EE501258EE5013581200EA
:10109000FE0EDBCFE6FF56DDE552FE0EDB38F00B31
:1010A000E66E50DDE5521200C10E1026000E112230
:1010B00010500F017E25E96E11507F21EA6E12005B
:1010C000FD0EDBCFE6FFFE0EDBCFE6FF34EF09F0CF
:1010D000020EDBCF10F0030EDBCF11F0D8901150D1
:1010E00012007DD8D890030EEB50000A1200000EBB
:1010F000EE5C000EEE58000EEE58000EEE58120098
:10110000DBCF09F095EC0DF0065007100810091020
:101110001200010EDB04146E156A1200E66E26DE64
:10112000E5521200DECF10F0DDCF11F0126A136A23
:101130001200FB0EDBCF12F0FC0EDBCF13F012001F
:10114000010EDBCF10F0000EE76E10181200020E39
:10115000DB6A030EDB6A120006C00BF007C00CF05E
:1011600008C00DF009C00EF01200E66EE66AE66AED
:10117000E66A7DDC81D0EA6AC10FE96E000EF6EF07
:1011800007F0EA6AD10FE96E000EF6EF07F0811260
:1011900010DF0F0E811612000F0E12DF0F0E8112DC
:1011A00081860EDF0F0E81141200FB0EDBCF06F0DE
:1011B000FC0EDBCF07F0FD0EDBCF08F0FE0E1200B9
:1011C000F90EDBCF06F0FA0EDBCF07F0FB0EDBCF1C
:1011D00008F0FC0E1200E66ECCDCE5521200E96E5F
:1011E000FF0EDA20EA6E1200F8DEFE0EDBCFE6FF1D
:1011F000B8DCE552F7D60A0EE66EE66AF1DC3CD0C2
:10120000EECF06F0EECF07F0EECF08F0EFCF09F00B
:10121000120005C0EDFF04C0EDFF03C0EDFF02C0EA
:10122000EFFF120006C010F007C011F008C012F066
:1012300009C013F01200D1DE020EE126DF6A1200AF
:10124000E66A010EE66E13EF08F0C7DEE652120002
:10125000C4DE040EE126DE6ADD6A1200BEDE0F0E79
:101260008116FE0EDB5012009DDCE552E5521200A5
:10127000E66AE66A13EF08F0E552E552E552E552F8
:0212800012005A
:0E128200F1D8D59EFD0EDBCF00F1FE0EDBCFC6
:1012900001F1D59C05D9D59AD586F28AF294F184CC
:1012A000D58EE6D0D59E1200FBD8D58E1200DBD8A5
:1012B000CD90FD0EDBCF02F1FE0EDBCF03F1F7D8B0
:1012C0009D809E909F90CD8ECD8CCD98CD9ACD96C1
:1012D000CD92CD80CDD0EBD8CD801200CD90120034
:1012E000C2D8CA94CC6AFE0EDB500101046F056BB4
:1012F000CB6E9D829E929F92CA90CA92CA84B8D0A9
:1013000004C1CBFFCA841200CA941200ACD8B190B9
:10131000FD0EDBCF06F1FE0EDBCF07F1CFD8075075
:10132000B36ECCD8B5D8B26EA082A192A292B18E83
:10133000B198B19AB192B1809BD0C0D80350B26E2F
:10134000BDD89ED8B36EB1801200B19012000101D9
:10135000102B000E11231851105D1951115904E37F
:10136000106B116B010E086F12000101122B000EA1
:1013700013231A51125D1B51135904E3126B136BA3
:10138000010E096F12000101142B000E15231C51D0
:10139000145D1D51155904E3146B156B010E0A6F92
:1013A00012000101162B000E17231E51165D1F514E
:1013B000175904E3166B176B010E0B6F120053D80D
:1013C000FD0EDBCF18F1FE0EDBCF19F10101106B22
:1013D000116B086B4DD047D8FD0EDBCF1AF1FE0E16
:1013E000DBCF1BF1050E0D6E0E6A1AC108F01BC192
:1013F00009F0BBEC0CF008C01AF109C01BF10101A7
:10140000126B136B096B34D02ED8FD0EDBCF1EF19F
:10141000FE0EDBCF1FF10A0E0D6E0E6A1EC108F024
:101420001FC109F0BBEC0CF008C01EF109C01FF190
:101430000101166B176B0B6B1BD0186A1650135CEF
:10144000106E17501458116E18501558126E0C6A01
:10145000010E0D6E0E6A10C007F011C008F012C028
:1014600009F0E1EF0CF0D9CFE6FFE1CFD9FF120090
:10147000E552E7CFD9FF120013681468156A12000D
:1014800007C010F008C011F009C012F00750120098
:1014900003C010F004C011F005C012F00350120098
:1014A00014D80350D66E11D8EBDFD76E120014D8C3
:1014B0000750CF6E11D8ECDFCE6E1200DDDF06C113
:1014C00016F007C117F01DEF0AF0D6DF00C116F0C5
:1014D00001C117F01DEF0AF0CFDF02C116F003C102
:0614E00017F01DEF0AF0F9
:0A14E6000F0E946E82681200BAD84F
:1014F000E2D801E6DBD835E2A6D8BDD801E6D6D8D9
:101500002BE2C2D820E1DECF14F0DDCF15F0D89069
:1015100014361536D89014361536020EDB501424C6
:10152000E96E030EDB501520CAD8EECF12F0EFCFD4
:1015300013F0010E1226000E132275D812C0EEFF12
:1015400013C0EDFF03D06FD8EE6AED6A020EDB2AFE
:10155000030ED3E3DB2AD1D7DF2A010EC9E3DB2A4E
:10156000C7D7040EE15C02E2E16AE5529AD07AD86C
:10157000AFD8FD0EDBCF12F0FE0EDBCF13F0115013
:101580001318E8AE02D0133404D01250105C13507C
:10159000115816E2020EDB6A030EDB6A6CD804E611
:1015A000EE0E105C000E115806E2020EDB2A030E4E
:1015B000F5E3DB2AF3D7DF2A010EDAE3DB2AD8D7FB
:1015C000040EE15C02E2E16AE5526BD04BD873D8BD
:1015D00001E66CD822E237D84ED801E667D80FE290
:1015E00022D8EE6AED6A50D804E11DD8010EEE6EE5
:1015F000ED6A020EDB2A030EEFE3DB2AEDD7825001
:10160000816EE80EE66E030EE66EB1DFE552E5523E
:10161000DF2A010EDCE3DB2ADAD7040EE15C02E20A
:10162000E16AE5523ED054D8D89010361136D890A1
:1016300010361136020EDB501024E96E030EDB501B
:1016400011205FEF0BF0DECFE9FFDDCFEAFF650E83
:10165000E9260F0EEA22EF1C826E020EDB6A030EF1
:10166000DB6A1200D9CFE6FFE1CFD9FF040EE126F5
:10167000DE6ADD6A1200020EDBCF10F0030EDBCF54
:1016800011F0D89011501200020EDBCFE9FF030ECB
:10169000DBCFEAFF690EE9260F0EEA22EF50821433
:1016A0001200E16EE552E7CFD9FF1200040E105C84
:1016B000000E115812000CD8D89011501200EA6E8A
:1016C000D890E936EA36450EE9260F0EEA221200D6
:0A16D000DECF10F0DDCF11F01200A4
:0616DA00F28ED08EF28CAE
:1016E0001200F19CF292F2881200D8CFE4FFE0CF12
:1016F000E4FFE46E62D800EE00F0100EE80403E3AD
:10170000EECFE4FFFBD700EE10F00A0EE80403E38F
:10171000EECFE4FFFBD7E652F2B477D89EB07CD888
:10172000A1B281D8F2B2F2929EBA9E9AE55200EE30
:1017300019F00A0EE80403E3E5CFEDFFFBD700EE56
:101740000FF0100EE80403E3E5CFEDFFFBD74AD816
:10175000E550E5CFE0FFE5CFD8FF10002ED800EE32
:1017600000F0100EE80403E3EECFE4FFFBD700EE39
:1017700010F00A0EE80403E3EECFE4FFFBD7E652D5
:10178000F2B443D89EB048D8A1B24DD8F2B2F2928A
:101790009EBA9E9AE55200EE19F00A0EE80403E3A1
:1017A000E5CFEDFFFBD700EE0FF0100EE80403E3EA
:1017B000E5CFEDFFFBD716D81100DACFE4FFE2CF7B
:1017C000DAFFE9CFE4FFEACFE4FFF6CFE4FFF7CF9B
:1017D000E4FFF5CFE4FFF3CFE4FFF4CFE4FFFACF6B
:1017E000E4FF1200E5CFFAFFE5CFF4FFE5CFF3FF0A
:1017F000E5CFF5FFE5CFF7FFE5CFF6FFE5CFEAFF51
:10180000E5CFE9FFE5CFDAFF120052EC09F0F294E0
:1018100054EC09F0A7EF09F06EEC09F09E906BEC28
:1018200009F0B5EF09F0A5EC09F0A1929DEC09F0E3
:04183000D1EF09F0FB
:0C18340057524F4E47205553455220504C
:10184000415353004F50454E494E4720444F4F524D
:101850002020202000454E5445522055534552200B
:10186000504153530057524F4E475F5245534554D2
:10187000202000534156455F444620005345545FA5
:10188000444620004E4F5420454D505459202000CE
:10189000534156452050415353574F524420200046
:1018A0005345542050415353574F52442020004C2D
:1018B0004F47204F5554004E4557205041535357E2
:1018C0004F52443A200055534552204C4953543A04
:1018D00020004348414E20332020455849542034AD
:1018E000005345545020312020524553502032009F
:1018F0004558495420200052452D454E5445522804
:101900002A29204F5220455849542823290057524C
:101910004F4E47204F574E45522050415353002AB7
:1019200000454E544552204F574E4552205041538A
:101930005300202020202020202020202020202094
:101940002020005052455353202A20464F52205009
:10195000415353005052455353202320464F5220A9
:1019600055534552005052455353202A20464F525A
:05197000204F574E005E
:0A197600006A0EAEC4EF0CF00D6C19
:101980000E1EE86A0E22001E09AECCEF0CF0086CA9
:10199000091EE86A0922001ED6EC0DF009BEDCEF34
:1019A0000CF000AE000C086C091EE86A0922046CF9
:1019B000051EE86A0522000C00BED3EF0CF001887A
:1019C000FF0C006A0EAEECEF0CF00C6C0D1E0E1E40
:1019D000E86A0D220E22001E09AEF6EF0CF0076C2D
:1019E000081E091EE86A08220922001EB9EC0DF043
:1019F00009BE09EF0DF000AE000C076C081E091EB1
:101A0000E86A08220922036C041E051E042205222E
:0C1A1000000C00BEFDEF0CF00188FF0C84
:041A1C001E0EF66E36
:101A2000000EF76E000EF86E0F010900F550726F90
:101A30000900F550736F03E1726701D03DD00900D2
:101A4000F5506D6F0900F5506E6F0900F5506F6F1E
:101A500009000900F550E96E0900F550EA6E090029
:101A600009000900F550706F0900F550716F090009
:101A70000900F6CF74FFF7CF75FFF8CF76FF6DCF73
:101A8000F6FF6ECFF7FF6FCFF8FF0F01705302E143
:101A9000715307E00900F550EE6E7007F8E2710728
:101AA000F9D774CFF6FF75CFF7FF76CFF8FF0F01A8
:0A1AB0007207000E735BBFD712002F
:061ABA0006500B02F3CF01
:101AC00002F0F4CF03F00C02F3500326000EF420D2
:101AD000046E06500D02F3500426000EF420056E2D
:101AE00006500E02F350052607500B02F350032652
:101AF000F4500422000E052207500C02F350042675
:101B0000F450052207500D02F350052608500B0231
:101B1000F3500426F450052208500C02F350052619
:0A1B200009500B02F35005261200D5
:061B2A00056A046A036A6B
:101B3000026A200EE76ED890063607360836093658
:101B400002360336043605360B50025C0C5003583F
:101B50000D5004580E50055809E30B50025E0C500E
:101B6000035A0D50045A0E50055A062AE72EE4D7A0
:021B7000120061
:0E1B7200056A046A036A180EE76ED8900736FB
:101B8000083609360336043605360C50035C0D5012
:101B900004580E50055807E30C50035E0D50045ACC
:0C1BA0000E50055A072AE72EEAD7120063
:041BAC00056A046A58
:101BB000100EE76ED89008360936043605360D50FB
:101BC000045C0E50055805E30D50045E0E50055A96
:081BD000082AE72EF0D71200ED
:081BD800800EF36E00EE00F038
:101BE0000F0E01D81200EA6002D0EE6AFCD7F35063
:081BF000E9601200EE6AFCD767
:081BF8001EEE00F02EEE00F0DD
:101C0000F86A019C0EEC0DF003EC00F02EEC00F0F5
:041C1000FBD71200EC
:0C1C1400000000000000000000000000C4
:101C200000000000000000000000000001000100B2
:041C300001000100AE
:0C1C3400010204081020408000000000A5
:101C400000000000010203410405064207080943A1
:101C50002A004544000000000000000000000000D1
:101C60000000000000000000000000000000000074
:091C7000000D02330000FFFF002B
:071C79000000000000000064
:101C8000001010101010101010181818181818182C
:101C9000181C1C1C1C1C1C1C1C1E1E1E1E1E1E1E7A
:101CA0001E1F1F1F1F1F1F1F1F000000000000001E
:101CB0000000000000000000000000000000000024
:101CC0000000000000000000000000000000000014
:0A1CD000000000000000000000000A
:061CDA0000000000000004
:101CE00000000000000000000000000000000000F4
:101CF00000000000000000000000102040800102F1
:021D00000408D5
:020000040030CA
:0100010002FC
:0100020003FA
:010003001EDE
:010005008179
:010006008178
:010008000FE8
:01000900C036
:01000A000FE6
:01000B00E014
:01000C000FE4
:01000D0040B2
:00000001FF
